:100000008A11E52F00308A000408840A8207003430
:10001000043404340434043415340E340434003409
:100020000234043408341F340834043402340034F5
:100030000834043402341F340234043408340034E5
:1000400004340E34153404340434043404340034D9
:100050004C3443344434203454346534733474346D
:100060002034503472346F346734723461346D34F8
:100070000034483465346C346C346F342034573475
:0A0080006F3472346C3464340034C1
:100A9C000800003440341434543410340234F60159
:100AAC0001308A11F1258A110330FA009730F900D0
:100ABC00F90B5E2DFA0B5E2D632D080083120313C8
:100ACC002C15F6012C0808388A11F1258A111030E2
:100ADC00F900F90B6F2D00000800FA007A08840069
:100AEC008A1102208A11003803190800F601F60A4F
:100AFC007A0884008A1102208A118A11F1258A1140
:100B0C000130F9007908FA07742DF30183160313E9
:100B1C00061086100510851005118511F3010B3098
:100B2C0073020318A62DF00173088A1153268A113B
:100B3C000130F2007208F3070B307302031C992D7D
:100B4C0004300800FB008312031325087902031CF0
:100B5C00B42D2508FF3EFA007A08F90024087B0220
:100B6C00031CBD2D2408FF3EFA007A08FB00F60199
:100B7C007908203E84007B088313000780388A1193
:100B8C00F1250800FB000730FA007A08FB05F60196
:100B9C007B08FA0002300310FA0DFF3E031DD12D25
:100BAC0003107A0D40388A11F1258A11FC010830A6
:100BBC007C0203180800F601F60A7C087907840009
:100BCC008A1102208A118A11F1258A110130FA004A
:100BDC007A08FC07DD2DF80076080319F82DF001D2
:100BEC00F00AF92DF00109308A1153268A11F0010F
:100BFC000A308A1153268A11831203132B08043AE4
:100C0C00031D182E7808F70004300310F70CFF3E74
:100C1C00031D0B2E77088A111C268A1178088A115D
:100C2C001C26080078088A114E250800F4000430B0
:100C3C00F2007208F500083075020318442E0130DA
:100C4C00F2007508FC3E013E2D2E0310F20DFF3E06
:100C5C00031D2B2E720874050030031D0130F300A8
:100C6C007308F00075088A1153268A110130F200BE
:100C7C007208F50708307502031C252EF001F00AE6
:100C8C0008308A1153268A110330F200F20B4C2ED5
:100C9C00F00108308A1153260800F100852E7008E7
:100CAC0083120313031D05140319051008007008A3
:100CBC0083120313031D8514031985100800700893
:100CCC0083120313031D0515031905110800700881
:100CDC0083120313031D8515031985110800700871
:100CEC0083120313031D8614031986100800700861
:100CFC0083120313031D0614031906100800710850
:100D0C00043A0319552E013A03195D2E033A0319BF
:100D1C00652E013A03196D2E0F3A03197D2E013AF7
:100D2C000319752E033A03199C2E9C2E080083166A
:100D3C0003139B01FE3085007F3086001430831234
:100D4C000313A6002608F9000430A7002708FA00B0
:100D5C0000308A113E278A11113083120313A6002A
:100D6C002608F90000308A11C8258A11193083121F
:100D7C000313A6002608F90001308A11C8258A1130
:100D8C00093083120313A6002608F90002308A11D9
:100D9C00C8258A11013083120313A6002608F90016
:100DAC0003308A11C8258A118A1155258A118A1196
:100DBC0064258A1121308A1173258A11F901F90AE7
:100DCC0003308A11A8258A1132308A1173258A11B1
:100DDC00F901F90A0F308A11A8258A11831203131D
:100DEC00A901AA012A08803AFF0080307F02031D66
:100DFC00012F043029020318F42E0230831203133E
:100E0C00A8004530A700A930A600A60B0B2FA70BF6
:100E1C000B2FA80B0B2F122F8312031386130230E8
:100E2C00A8004530A700A930A600A60B1B2FA70BC6
:100E3C001B2FA80B1B2F222F831203138617F601CF
:100E4C00F60A29088A11F1258A113230831203130C
:100E5C00A6002608F90032308A11A8258A11013023
:100E6C0083120313A9070318AA0A0030AA07F82E45
:100E7C00FD007D088A118B258A11FB007B088312EB
:100E8C000313AB007A08FB007B08A5007908FB0074
:100E9C007B08A4008230FC00DD30FB00FB0B542FE0
:100EAC00FC0B542F592F831203132B08043A031DE8
:100EBC00912F03308A111C268A110730FC007D30DB
:100ECC00FB00FB0B672FFC0B672F03308A111C26D2
:100EDC008A112730FB00FB0B712F742F03308A1102
:100EEC001C268A112730FB00FB0B7A2F7D2F02303A
:100EFC008A111C268A112730FB00FB0B832F862FAF
:100F0C00F6012C308A11F1258A111030FB00FB0BF5
:100F1C008D2F0000C22F831203132B08083A031DD8
:100F2C00C22FF60120308A11F1258A110730FC00FE
:100F3C007D30FB00FB0BA02FFC0BA02FF60120300B
:100F4C008A11F1258A112730FB00FB0BAB2FAE2F3A
:100F5C00F60120308A11F1258A112730FB00FB0B9A
:100F6C00B52FB82FF6013C308A11F1258A111030BB
:100F7C00FB00FB0BBF2F0000F60108308A11F12596
:100F8C008A111030FB00FB0BC92F0000F601013059
:100F9C008A11F1258A110330FC009730FB00FB0B02
:100FAC00D52FFC0BD52FDA2FF60106308A11F1253F
:100FBC008A111030FB00FB0BE12F00000800AC0184
:100FCC008A114F258A11A0008A1150258A11A1007F
:100FDC008A1151258A11A2008A1152258A11A30067
:100FEC008A1153258A11A4008A115425A500830166
:040FFC008A119D2E8B
:04400E0029FFFCFF8B
:00000001FF
