:100000008A11212D00308A000408840A82070034F6
:100010000034403414345434043404340434043488
:1000200015340E34043400340234043408341F34DC
:1000300008340434023400340834043402341F34E5
:10004000023404340834003404340E3415340434D7
:1000500004340434043400342034673465346534A3
:100060006B3466346134633474346F34723479348D
:100070002E346D34783420340034483465346C3494
:100080006C346F34203457346F3472346C346434CD
:0200900000343A
:100A3C00080010340234A8018A111F258A11A50060
:100A4C008A1120258A11A60083018A11A92E8312EE
:100A5C0003132815F601280808388A11E9258A118C
:100A6C001030F900F90B382D00000800F6010130A8
:100A7C008A11E9258A110330FA009730F900F90B35
:100A8C00452DFA0B452D4A2D0800FA005C2DF60178
:100A9C00F60A7A0884008A1102208A118A11E92543
:100AAC008A110130F9007908FA075C2D7A08840064
:100ABC008A1102208A110038031D652D662D4D2DDB
:100ACC00672D0800F301831603130610861005101A
:100ADC00851005118511F3010B307302031C772D62
:100AEC00782D7A2D8A2D8A2DF00173088A115D26B6
:100AFC008A110130F2007208F3070B307302031CE9
:100B0C00882D892D7A2D8A2D04308C2D0800FB0020
:100B1C008312031326087902031C952D962D9C2D08
:100B2C002608FF3EFA007A08F9009C2D25087B0266
:100B3C00031CA12DA22DA82D2508FF3EFA007A0832
:100B4C00FB00A82DF6017908013E84008A110220D1
:100B5C008A117B0780388A11E9258A110800FB006D
:100B6C000730FA007A08FB05F6017B08FA00023020
:100B7C000310FA0DFF3E031DBE2D03107A0D4038F5
:100B8C008A11E9258A11FC0108307C02031CCF2D47
:100B9C00D02DD22DE82DE82DF601F60A7C08790728
:100BAC0084008A1102208A118A11E9258A110130E8
:100BBC00FA007A08FC0708307C02031CE62DE72DAE
:100BCC00D22DE82D0800F8007608031DEE2DF52D2A
:100BDC00F001F00A09308A115D268A11FA2DF00114
:100BEC0009308A115D268A11F0010A308A115D26BE
:100BFC008A11831203132708043A031D062E072EAD
:100C0C00182E7808F70004300310F70CFF3E031D74
:100C1C000A2E77088A111E268A1178088A111E2638
:100C2C008A111D2E78088A111E258A111D2E080086
:100C3C00F4000430F2007208F50008307502031C51
:100C4C00282E292E2B2E4D2E4D2E0130F2007508FC
:100C5C00FC3E013E332E0310F20DFF3E031D312EE0
:100C6C00720874050030031D0130F3007308F000A6
:100C7C0075088A115D268A110130F2007208F50799
:100C8C0008307502031C4B2E4C2E2B2E4D2EF001D2
:100C9C00F00A08308A115D268A110330F200F20B3B
:100CAC00552EF00108308A115D268A110800F100DA
:100CBC00912E700883120313031D051403190510DC
:100CCC00A82E700883120313031D851403198510B5
:100CDC00A82E700883120313031D051503190511A3
:100CEC00A82E700883120313031D85150319851193
:100CFC00A82E700883120313031D86140319861083
:100D0C00A82E700883120313031D06140319061072
:100D1C00A82EA82EA82E7108043A03195F2E013AAA
:100D2C000319672E033A03196F2E013A0319772E14
:100D3C000F3A0319872E013A03197F2E033A031930
:100D4C00A82EA82E0800831603139B01FF308500E4
:100D5C007F308600103083120313A0002008F900A6
:100D6C000230A1002108FA0000308A1152278A11A2
:100D7C00153083120313A0002008F90000308A11EB
:100D8C00B5258A111D3083120313A0002008F90029
:100D9C0001308A11B5258A110D3083120313A0007E
:100DAC002008F90002308A11B5258A11053083120A
:100DBC000313A0002008F90003308A11B5258A110D
:100DCC008A113C258A118A112D258A1125308A1108
:100DDC004B258A11F901F90A03308A118D258A11E4
:100DEC0036308A114B258A11F901F90A0F308A1114
:100DFC008D258A11012F83120313A301A40124084A
:100E0C00803AFF0080307F02031D0E2F0430230236
:100E1C00031C112F122F142F012F012F03308312BB
:100E2C000313A2008A30A1005630A000A00B1C2F87
:100E3C00A10B1C2FA20B1C2F232F8030831203130A
:100E4C00A00020088606F601F60A23088A11E92577
:100E5C008A11323083120313A0002008F9003230BB
:100E6C008A118D258A11013083120313A3070318ED
:100E7C00A40A0030A4072408803AFF0080307F02C7
:100E8C00031D4A2F04302302031C4D2F4E2F142F09
:100E9C00012F012F8A110028FD007D088A11682579
:100EAC008A11FB007B0883120313A7007A08FB004E
:100EBC007B08A6007908FB007B08A5008230FC00AB
:100ECC00DD30FB00FB0B682FFC0B682F6D2F8312A2
:100EDC0003132708043A031D742F752FA72F033013
:100EEC008A111E268A110730FC007D30FB00FB0B9B
:100EFC007D2FFC0B7D2F03308A111E268A11273083
:100F0C00FB00FB0B872F8A2F03308A111E268A11B8
:100F1C002730FB00FB0B902F932F02308A111E26DB
:100F2C008A112730FB00FB0B992F9C2FF6012C30DC
:100F3C008A11E9258A111030FB00FB0BA32F00004E
:100F4C00DC2F831203132708083A031DAE2FAF2F93
:100F5C00DC2FF60120308A11E9258A110730FC00BC
:100F6C007D30FB00FB0BB82FFC0BB82FF6012030AB
:100F7C008A11E9258A112730FB00FB0BC32FC62FE2
:100F8C00F60120308A11E9258A112730FB00FB0B72
:100F9C00CD2FD02FF6013C308A11E9258A11103063
:100FAC00FB00FB0BD72F0000DC2FDC2FF6010830E9
:100FBC008A11E9258A111030FB00FB0BE32F00008E
:100FCC00F60101308A11E9258A110330FC009730B3
:100FDC00FB00FB0BEF2FFC0BEF2FF42FF601063071
:100FEC008A11E9258A111030FB00FB0BFB2F000046
:040FFC00FF2F0800BB
:04400E0029FFFCFF8B
:00000001FF
