:100000008A11142D00308A000408840A8207003403
:100010000034403414345434043404340434043488
:1000200015340E34043400340234043408341F34DC
:1000300008340434023400340834043402341F34E5
:10004000023404340834003404340E3415340434D7
:1000500004340434043400344C3443344434203401
:1000600054346534733474342034503472346F34FF
:100070006734723461346D340034483465346C3420
:100080006C346F34203457346F3472346C346434CD
:0200900000343A
:100A2200080010340234A8018A1112258A11A50087
:100A32008A1113258A11A60083018A114A2F831273
:100A420003132815F601280808388A11DC258A11B3
:100A52001030F900F90B2B2D00000800F6010130CF
:100A62008A11DC258A110330FA009730F900F90B5C
:100A7200382DFA0B382D3D2D0800FA004F2DF601C6
:100A8200F60A7A0884008A1102208A118A11DC256A
:100A92008A110130F9007908FA074F2D7A0884008B
:100AA2008A1102208A110038031D582D592D402D1C
:100AB2005A2D0800F3018316031306108610051041
:100AC200851005118511F3010B307302031C6A2D89
:100AD2006B2D6D2D7D2D7D2DF00173088A11502611
:100AE2008A110130F2007208F3070B307302031C03
:100AF2007B2D7C2D6D2D7D2D04307F2D0800FB007C
:100B02008312031326087902031C882D892D8F2D49
:100B12002608FF3EFA007A08F9008F2D25087B028D
:100B2200031C942D952D9B2D2508FF3EFA007A0873
:100B3200FB009B2DF6017908013E84008A110220F8
:100B42008A117B0780388A11DC258A110800FB0094
:100B52000730FA007A08FB05F6017B08FA0002303A
:100B62000310FA0DFF3E031DB12D03107A0D40381C
:100B72008A11DC258A11FC0108307C02031CC22D7B
:100B8200C32DC52DDB2DDB2DF601F60A7C08790776
:100B920084008A1102208A118A11DC258A1101300F
:100BA200FA007A08FC0708307C02031CD92DDA2DE2
:100BB200C52DDB2D0800F8007608031DE12DE82D78
:100BC200F001F00A09308A1150268A11ED2DF00148
:100BD20009308A1150268A11F0010A308A115026F2
:100BE2008A11831203132708043A031DF92DFA2DE3
:100BF2000B2E7808F70004300310F70CFF3E031D9C
:100C0200FD2D77088A1111268A1178088A1111267A
:100C12008A11102E78088A1111258A11102E0800C7
:100C2200F4000430F2007208F50008307502031C6B
:100C32001B2E1C2E1E2E402E402E0130F200750857
:100C4200FC3E013E262E0310F20DFF3E031D242E14
:100C5200720874050030031D0130F3007308F000C0
:100C620075088A1150268A110130F2007208F507C0
:100C720008307502031C3E2E3F2E1E2E402EF00120
:100C8200F00A08308A1150268A110330F200F20B62
:100C9200482EF00108308A1150268A110800F1000E
:100CA200842E700883120313031D05140319051003
:100CB2009B2E700883120313031D851403198510DC
:100CC2009B2E700883120313031D051503190511CA
:100CD2009B2E700883120313031D851503198511BA
:100CE2009B2E700883120313031D861403198610AA
:100CF2009B2E700883120313031D0614031906109A
:100D02009B2E9B2E9B2E7108043A0319522E013AF8
:100D120003195A2E033A0319622E013A03196A2E55
:100D22000F3A03197A2E013A0319722E033A031964
:100D32009B2E9B2E0800FD007D088A115B258A11DF
:100D4200FB007B0883120313A7007A08FB007B08D1
:100D5200A6007908FB007B08A5008230FC00DD308C
:100D6200FB00FB0BB22EFC0BB22EB72E8312031329
:100D72002708043A031DBE2EBF2EF12E03308A111E
:100D820011268A110730FC007D30FB00FB0BC72EB9
:100D9200FC0BC72E03308A1111268A112730FB0063
:100DA200FB0BD12ED42E03308A1111268A11273043
:100DB200FB00FB0BDA2EDD2E02308A1111268A117E
:100DC2002730FB00FB0BE32EE62EF6012C308A11B6
:100DD200DC258A111030FB00FB0BED2E0000262FC4
:100DE200831203132708083A031DF82EF92E262F23
:100DF200F60120308A11DC258A110730FC007D3093
:100E0200FB00FB0B022FFC0B022FF60120308A1194
:100E1200DC258A112730FB00FB0B0D2F102FF6016A
:100E220020308A11DC258A112730FB00FB0B172F9B
:100E32001A2FF6013C308A11DC258A111030FB0092
:100E4200FB0B212F0000262F262FF60108308A11D6
:100E5200DC258A111030FB00FB0B2D2F0000F60160
:100E620001308A11DC258A110330FC009730FB0027
:100E7200FB0B392FFC0B392F3E2FF60106308A115E
:100E8200DC258A111030FB00FB0B452F0000492F97
:100E92000800831603139B01FE3085007F30860015
:100EA200103083120313A0002008F9000230A100C1
:100EB2002108FA0000308A119C268A11153083120B
:100EC2000313A0002008F90000308A11A8258A1116
:100ED2001D3083120313A0002008F90001308A118B
:100EE200A8258A110D3083120313A0002008F900EF
:100EF20002308A11A8258A11053083120313A0003B
:100F02002008F90003308A11A8258A118A112F2599
:100F12008A118A1120258A1125308A113E258A11CB
:100F2200F901F90A03308A1180258A1136308A11B3
:100F32003E258A11F901F90A0F308A1180258A119A
:100F4200A22F83120313A301A4012408803AFF00F5
:100F520080307F02031DAF2F04302302031CB22F07
:100F6200B32FB52FA22FA22F033083120313A20097
:100F72008A30A1005630A000A00BBD2FA10BBD2FBF
:100F8200A20BBD2FC42F8312031386130330A200BA
:100F92008A30A1005630A000A00BCD2FA10BCD2F7F
:100FA200A20BCD2FD42F831203138617F601F60A54
:100FB20023088A11DC258A11323083120313A00020
:100FC2002008F90032308A1180258A1101308312FB
:100FD2000313A3070318A40A0030A4072408803AC5
:100FE200FF0080307F02031DF82F04302302031C10
:0E0FF200FB2FFC2FB52FA22FA22F8A11002853
:04400E0029FFFCFF8B
:00000001FF
