:100000008A114E2D00308A000408840A82070034C9
:10001000043404340434043415340E340434003409
:100020000234043408341F340834043402340034F5
:100030000834043402341F340234043408340034E5
:1000400004340E34153404340434043404340034D9
:100050004C3443344434203454346534733474346D
:100060002034503472346F346734723461346D34F8
:100070000034483465346C346C346F342034573475
:100080006F3472346C34643400348A119B2E8A11BC
:100090009B2E8A119B2E8A119B2E8A115D2E8A110E
:1000A000652E8A116D2E8A11752E8A11852E8A1160
:0600B0007D2E8A119B2E3B
:100A2A00003440341434543410340234831203131F
:100A3A002C15F6012C0808388A1122268A11103042
:100A4A00F900F90B262D00000800F60101308A1181
:100A5A0022268A110330FA009730F900F90B332D58
:100A6A00FA0B332D382D0800F30073088312031391
:100A7A008500F001F00A08308A1157268A110330DE
:100A8A00F200F20B462DF00108308A1157268A111E
:100A9A000800AC018A1115258A11A0008A111625B1
:100AAA008A11A1008A1117258A11A2008A11182514
:100ABA008A11A3008A1119258A11A4008A111A25FC
:100ACA008A11A50083018A114A2FFA007B2DF601AB
:100ADA00F60A7A0884008A1102208A118A112226CB
:100AEA008A110130F9007908FA077B2D7A08840007
:100AFA008A1102208A110038031D842D852D6C2D40
:100B0A00862D0800F4000F307405F20083120313D7
:100B1A000508F0397204F3007308F50075088500BA
:100B2A00F001F00A08308A1157268A110330F200C0
:100B3A00F20B9D2DF00108308A1157268A11080000
:100B4A00F30183160313850106108610F30108309A
:100B5A007302031CB12DB22DB42DC42DC42DF00186
:100B6A0073088A1157268A110130F2007208F307B6
:100B7A0008307302031CC22DC32DB42DC42D0430BA
:100B8A00C62D0800FB008312031325087902031CF3
:100B9A00CF2DD02DD62D2508FF3EFA007A08F90070
:100BAA00D62D24087B02031CDB2DDC2DE22D240824
:100BBA00FF3EFA007A08FB00E22DF6017908203E92
:100BCA0084007B088313000780388A1122268A1141
:100BDA000800FB000730FA007A08FB05F6017B08DB
:100BEA00FA0002300310FA0DFF3E031DF72D031021
:100BFA007A0D40388A1122268A11FC0108307C02BB
:100C0A00031C082E092E0B2E212E212EF601F60A80
:100C1A007C08790784008A1102208A118A11222607
:100C2A008A110130FA007A08FC0708307C02031C9A
:100C3A001F2E202E0B2E212E0800F8007608031DE9
:100C4A00272E2E2EF001F00A09308A1157268A1112
:100C5A00332EF00109308A1157268A11F0010A3021
:100C6A008A1157268A11831203132B08043A031D8B
:100C7A003F2E402E512E7808F70004300310F70C4F
:100C8A00FF3E031D432E77088A1187258A117808AB
:100C9A008A1187258A11562E78088A1139258A11D0
:100CAA00562E0800F1008F2E9B2E9B2E9B2E9B2EDC
:100CBA00700883120313031D0514031905109B2ED4
:100CCA00700883120313031D8514031985109B2EC4
:100CDA00700883120313031D0515031905119B2EB2
:100CEA00700883120313031D8515031985119B2EA2
:100CFA00700883120313031D8614031986109B2E92
:100D0A00700883120313031D0614031906109B2E81
:100D1A009B2E9B2E710884000B30040203189B2E15
:100D2A0000308A000310040D453E82000800FD00D1
:100D3A007D088A11A5258A11FB007B0883120313FB
:100D4A00AB007A08FB007B08A5007908FB007B084A
:100D5A00A4008230FC00DD30FB00FB0BB22EFC0B42
:100D6A00B22EB72E831203132B08043A031DBE2E8C
:100D7A00BF2EF12E03308A1187258A110730FC0015
:100D8A007D30FB00FB0BC72EFC0BC72E03308A11EC
:100D9A0087258A112730FB00FB0BD12ED42E033076
:100DAA008A1187258A112730FB00FB0BDA2EDD2EEC
:100DBA0002308A1187258A112730FB00FB0BE32EAC
:100DCA00E62EF6012C308A1122268A111030FB00F9
:100DDA00FB0BED2E0000262F831203132B08083A73
:100DEA00031DF82EF92E262FF60120308A1122260D
:100DFA008A110730FC007D30FB00FB0B022FFC0B35
:100E0A00022FF60120308A1122268A112730FB0090
:100E1A00FB0B0D2F102FF60120308A1122268A1182
:100E2A002730FB00FB0B172F1A2FF6013C308A11D3
:100E3A0022268A111030FB00FB0B212F0000262FDF
:100E4A00262FF60108308A1122268A111030FB005B
:100E5A00FB0B2D2F0000F60101308A1122268A1180
:100E6A000330FC009730FB00FB0B392FFC0B392FAA
:100E7A003E2FF60106308A1122268A111030FB0015
:100E8A00FB0B452F0000492F0800831603139B0113
:100E9A00FE3085007F308600103083120313A600CF
:100EAA002608F9000230A7002708FA0000308A1144
:100EBA009C268A11113083120313A6002608F90012
:100ECA0000308A11EE258A11193083120313A60005
:100EDA002608F90001308A11EE258A110930831299
:100EEA000313A6002608F90002308A11EE258A119A
:100EFA00013083120313A6002608F90003308A1171
:100F0A00EE258A118A112A258A118A111B258A112E
:100F1A0021308A116A258A11F901F90A03308A11E6
:100F2A00C7258A1132308A116A258A11F901F90A0C
:100F3A000F308A11C7258A11A22F83120313A90120
:100F4A00AA012A08803AFF0080307F02031DAF2FD2
:100F5A0004302902031CB22FB32FB52FA22FA22FC0
:100F6A00023083120313A8004530A700A930A60057
:100F7A00A60BBD2FA70BBD2FA80BBD2FC42F831205
:100F8A00031386130230A8004530A700A930A60033
:100F9A00A60BCD2FA70BCD2FA80BCD2FD42F8312A5
:100FAA0003138617F601F60A29088A1122268A11DE
:100FBA00323083120313A6002608F90032308A1150
:100FCA00C7258A11013083120313A9070318AA0A35
:100FDA000030AA072A08803AFF0080307F02031DEA
:100FEA00F82F04302902031CFB2FFC2FB52FA22F48
:060FFA00A22F8A1100285D
:04400E0029FFFCFF8B
:00000001FF
