:100000008A11E52F00308A000408840A8207003430
:10001000043404340434043415340E340434003409
:100020000234043408341F340834043402340034F5
:100030000834043402341F340234043408340034E5
:1000400004340E34153404340434043404340034D9
:100050004C3443344434203454346534733474346D
:100060002034503472346F346734723461346D34F8
:100070000034483465346C346C346F342034573475
:100080006F3472346C34643400348A119C2E8A11BB
:100090009C2E8A119C2E8A119C2E8A11602E8A1108
:1000A000682E8A11702E8A11782E8A11882E8A1154
:0600B000802E8A119C2E37
:100A6200003440341434543410340234F60101306A
:100A72008A11D0258A110330FA009730F900F90B58
:100A8200402DFA0B402D452D0800831203132C151F
:100A9200F6012C0808388A11D0258A111030F90085
:100AA200F90B512D00000800FA007A0884008A111F
:100AB20002208A11003803190800F601F60A7A08A2
:100AC20084008A1102208A118A11D0258A110130EC
:100AD200F9007908FA07562DF301831603138501ED
:100AE20006108610F301083073020318852DF001F9
:100AF20073088A115E268A110130F2007208F30728
:100B020008307302031C782D04300800FB008312A6
:100B1200031325087902031C932D2508FF3EFA00D2
:100B22007A08F90024087B02031C9C2D2408FF3E4E
:100B3200FA007A08FB00F6017908203E84007B085F
:100B42008313000780388A11D0250800FB00073084
:100B5200FA007A08FB05F6017B08FA00023003105E
:100B6200FA0DFF3E031DB02D03107A0D40388A1195
:100B7200D0258A11FC0108307C0203180800F60116
:100B8200F60A7C08790784008A1102208A118A11E8
:100B9200D0258A110130FA007A08FC07BC2DF80032
:100BA20076080319D72DF001F00AD82DF00109308B
:100BB2008A115E268A11F0010A308A115E268A1194
:100BC200831203132B08043A031DF72D7808F7004C
:100BD20004300310F70CFF3E031DEA2D77088A113B
:100BE2002A268A1178088A112A26080078088A118A
:100BF200FB250800F400F5010830750203181B2ECE
:100C02000130F200750A072E0310F20DFF3E031D9C
:100C1200052E72087405F3007308F00075088A1136
:100C22005E268A110130F2007208F507083075025B
:100C3200031C012EF001F00A08308A115E268A1187
:100C42000330F200F20B232EF00108308A115E26E7
:100C52000800F4000430F2007208F5000830750252
:100C620003184F2E0130F2007508FC3E013E3B2E68
:100C72000310F20DFF3E031D392E72087405F300B6
:100C82007308F00075088A115E268A110130F2009D
:100C92007208F50708307502031C332EF001F00AC2
:100CA20008308A115E268A110330F200F20B572EA9
:100CB200F00108308A115E260800F100902E7008BB
:100CC20083120313031D051403190510080070088D
:100CD20083120313031D851403198510080070087D
:100CE20083120313031D051503190511080070086B
:100CF20083120313031D851503198511080070085B
:100D020083120313031D861403198610080070084A
:100D120083120313031D0614031906100800710839
:100D220084000B3004020318080000308A0003100C
:100D3200040D453E82000800831603139B01FE301A
:100D420085007F308600103083120313A600260828
:100D5200F9000230A7002708FA0000308A113E2766
:100D62008A11113083120313A6002608F9000030FD
:100D72008A11A7258A11193083120313A6002608A7
:100D8200F90001308A11A7258A1109308312031351
:100D9200A6002608F90002308A11A7258A1101301F
:100DA20083120313A6002608F90003308A11A7252F
:100DB2008A118A1137258A118A1146258A11213012
:100DC2008A1155258A11F901F90A03308A118725FA
:100DD2008A1132308A1155258A11F901F90A0F3028
:100DE2008A1187258A1183120313A901AA012A08ED
:100DF200803AFF0080307F02031D012F0430290258
:100E02000318F42E023083120313A8004530A70002
:100E1200A930A600A60B0B2FA70B0B2FA80B0B2F8D
:100E2200122F8312031386130230A8004530A70045
:100E3200A930A600A60B1B2FA70B1B2FA80B1B2F3D
:100E4200222F831203138617F601F60A29088A1144
:100E5200D0258A11323083120313A6002608F90026
:100E620032308A1187258A11013083120313A907B0
:100E72000318AA0A0030AA07F82EFD007D088A117D
:100E82006D258A11FB007B0883120313AB007A08DD
:100E9200FB007B08A5007908FB007B08A4008230D8
:100EA200FC00DD30FB00FB0B542FFC0B542F592FA1
:100EB200831203132B08043A031D912F03308A1166
:100EC2002A268A110730FC007D30FB00FB0B672FBE
:100ED200FC0B672F03308A112A268A112730FB0068
:100EE200FB0B712F742F03308A112A268A112730A7
:100EF200FB00FB0B7A2F7D2F02308A112A268A11E2
:100F02002730FB00FB0B832F862FF6012C308A1132
:100F1200D0258A111030FB00FB0B8D2F0000C22F51
:100F2200831203132B08083A031DC22FF601203047
:100F32008A11D0258A110730FC007D30FB00FB0BA3
:100F4200A02FFC0BA02FF60120308A11D0258A1188
:100F52002730FB00FB0BAB2FAE2FF60120308A119E
:100F6200D0258A112730FB00FB0BB52FB82FF601D5
:100F72003C308A11D0258A111030FB00FB0BBF2FA9
:100F82000000F60108308A11D0258A111030FB00CA
:100F9200FB0BC92F0000F60101308A11D0258A11FE
:100FA2000330FC009730FB00FB0BD52FFC0BD52F39
:100FB200DA2FF60106308A11D0258A111030FB0093
:100FC200FB0BE12F00000800AC018A1131258A11C8
:100FD200A0008A1132258A11A1008A1133258A11B3
:100FE200A2008A1134258A11A3008A1135258A119B
:0E0FF200A4008A113625A50083018A119D2EC8
:04400E0029FFFCFF8B
:00000001FF
