:100000000A128A11EF2FFF0000308A007F08820752
:1000100008280A128A11542A0A128A11292A0A1255
:100020008A117E2A0A128A110B2A00308A000408DB
:10003000840A820700340034403414345434463483
:100040006C34653478344C34433444342034443490
:1000500065346D346F3400344734653465346B3443
:10006000203446346134633474346F3472347934F8
:0200700000345A
:1004080006160000EF308312031386050800C0307B
:1004180083168605C0308312860508002008F5007B
:100428002108F6002208F700F8010A128A11FB23B6
:1004380008002008F5002108F6002208F700F80156
:10044800F80A0A128A11FB230800F03083120313FA
:10045800860572080F3986047108F0000A128A119D
:1004680004220800250884000A128A1115200A129D
:100478008A11003A031908002308A0002408A100E3
:10048800250884000A128A1115200A128A11A2006E
:100498000A128A111D220A128A110130A507362A6A
:1004A8006D2A720803195C2A831203138616080042
:1004B800DF30831203138605080072080319682ABF
:1004C8008312031306160800EF3083120313860500
:1004D80008007108F300F4017408003A0319752A3A
:1004E8007D2A7308003A0319612A013A0319552A2B
:1004F8007D2A0800802A00000130F4000030F50051
:100508000030F6000030F7007408F0027508031C8C
:10051800750F8F2A902AF1027608031C760F952A08
:10052800962AF2027708031C770F9B2A9C2AF3026B
:10053800700A031D7F2A710A031D7F2A720A031D90
:100548007F2A730A031908007F2A7C08A0007D0807
:10055800A1001830A2000A128A1112220A128A1166
:100568000030F3000030F2000030F1003230F000CB
:100578007C08840083177D1C83130008A300840A69
:100588000008A4002308033EA50024080318013E20
:10059800003EA600250884008317261C8313000844
:1005A8000A128A11032008007C08A0007D08A10017
:1005B8001C30A2000A128A1112220A128A11003073
:1005C800F3000030F2000030F1003230F0007C0817
:1005D800840083177D1C83130008A300840A000885
:1005E800A4002308033EA50024080318013E003E8A
:1005F800A600250884008317261C831300080A1206
:100608008A11032008007C08043E83120313A30008
:100618007D080318013E003EA400230884008317C8
:10062800241C831300157C08A0007D08A1007C0809
:10063800043EA3007D080318013E003EA4002308E1
:1006480084008317241C831300080838A2000A12A8
:100658008A1112220A128A110030F3000030F200C7
:100668000030F1003230F0007C08840083177D1CD4
:1006780083130008A300840A0008A4002308033E8B
:10068800A50024080318013E003EA60025088400A2
:100698008317261C831300080A128A1103200800F6
:1006A800700884008317711C83130A308000700857
:1006B800013EF20071080318013E003EF300720883
:1006C80084008317731C8313013080007008023E76
:1006D800F20071080318013E003EF300720884001E
:1006E8008317731C8313043080007008033EF200E4
:1006F80071080318013E003EF30072088400831756
:10070800731C8313073080007008043EF2007108E0
:100718000318013E003EF300720884008317731C1F
:100728008313043080007008053EF2007108031836
:10073800013E003EF300720884008317731C831384
:10074800800108002308023EFC0024080318013E2B
:10075800003EFD007C08840083177D1C831300087D
:100768002602031CC72B2308023EFC00240803189A
:10077800013E003EFD007C08840083177D1C831326
:100788000008FF3EA6002308033EFC0024080318C7
:10079800013E003EFD007C08840083177D1C831306
:1007A80000082502031CE82B2308033EFC0024084C
:1007B8000318013E003EFD007C08840083177D1C61
:1007C80083130008FF3EA5002308A0002408A10009
:1007D8002608013E84000A128A1115200A128A117D
:1007E80025078038A2000A128A111222080075080B
:1007F80084008317761C83130008F900840A000814
:10080800FA007908FB007B08053E84008313000882
:10081800F0000230F100F2017B0A840000080A129D
:100828008A1103200A128A117B08053E840083136B
:100838000008F000F101F10A7808F2007B0A840050
:1008480000080A128A1103200A128A117B08043E42
:100858008400043083130006031D5A2C7B08053ED0
:1008680084000008F1007708F90004300310F90C3F
:10087800FF3E031D3A2C7908F2007B08023E8400F3
:1008880000080A128A1103200A128A117B08053E01
:10089800840083130008F1007708F2007B08023E09
:1008A800840000080A128A11032008007B08053E0C
:1008B80084000008F1007708F2007B08023E8400FB
:1008C80000080A128A11032008003230F0000030B4
:1008D800F1000A128A1154230A128A113830A3002F
:1008E8000030A4003230A5000030A6001030A70068
:1008F8000230A8000A128A11F3240A128A11383029
:10090800FC000030FD000A128A1107230A128A111E
:10091800383083120313A3000030A4000530A5006B
:100928000A128A1136220A128A113830A3000030BE
:10093800A400A501A601A60A0A128A11A6230A1272
:100948008A113830A3000030A4001230A5000A1222
:100958008A1136220A128A11B0013830FC000030A0
:10096800FD000A128A11D8220A128A111A3083123B
:100978000313AF005E30AE006D30AD00AD0BC22C7E
:10098800AE0BC22CAF0BC22CC92C0130831203133F
:10099800B00704303002031CB12CB1013830FC0020
:1009A8000030FD000A128A11A9220A128A111A308F
:1009B80083120313AF005E30AE006D30AD00AD0B97
:1009C800E32CAE0BE32CAF0BE32CEA2C01308312A3
:1009D8000313B107043031020318B02CD22C2308BA
:1009E80084008317241C831325088000840A2608A2
:1009F80080002308033EA90024080318013E003E96
:100A0800AA002908840083172A1C8313270880005A
:100A18002308023EA90024080318013E003EAA004C
:100A28002908840083172A1C8313280880002308B8
:100A3800043EA90024080318013E003EAA00290824
:100A4800840083172A1C831380012508053EA9000A
:100A580026080318013E003EAA00290884008317CF
:100A68002A1C83130008F000250884008317261C1D
:100A7800831300080A128A1103200A128A1100300F
:100A8800F3000030F200C330F1005030F0002508C8
:100A9800033EA90026080318013E003EAA002908C3
:100AA800840083172A1C831300080A128A11032062
:100AB8000A128A11831203132508043EA900260886
:100AC8000318013E003EAA002908840083172A1C47
:100AD800831304300006031DC92E2508053EA9000E
:100AE80026080318013E003EAA002908840083173F
:100AF8002A1C83130008F000F101F10AF20125080D
:100B0800013EAB0026080318013E003EAC002B084E
:100B1800840083172C1C831300080A128A110320EF
:100B28000A128A11831203132508053EA900260814
:100B38000318013E003EAA002908840083172A1CD6
:100B480083130008F0000230F100F2012508013E8D
:100B5800AB0026080318013E003EAC002B088400B9
:100B680083172C1C831300080A128A1103200A1207
:100B78008A11831203132508053EA90026080318C5
:100B8800013E003EAA002908840083172A1C83130B
:100B98000008F1000330F2002508023EAB002608E9
:100BA8000318013E003EAC002B08840083172C1C60
:100BB800831300080A128A1103200A128A110030CE
:100BC800F3000030F200C330F1005030F000250887
:100BD800033EA90026080318013E003EAA00290882
:100BE800840083172A1C831300080A128A11032021
:100BF8000A128A11831203132508053EA900260844
:100C08000318013E003EAA002908840083172A1C05
:100C180083130008F1000330F2002508023EAB0000
:100C280026080318013E003EAC002B0884008317F9
:100C38002C1C831300080A128A1103200A128A1135
:100C48000030F3000030F2000030F1007830F0009E
:100C58002508033EA90026080318013E003EAA0005
:100C68002908840083172A1C831300080A128A1192
:100C780003200A128A11831203132508053EA900CE
:100C880026080318013E003EAA002908840083179D
:100C98002A1C83130008F1000330F2002508023EE5
:100CA800AB0026080318013E003EAC002B08840068
:100CB80083172C1C831300080A128A1103200A12B6
:100CC8008A110030F3000030F2000030F100783073
:100CD800F0002508033EA90026080318013E003E3F
:100CE800AA002908840083172A1C831300080A1203
:100CF8008A1103200A128A11831203132508053E5C
:100D0800A90026080318013E003EAA00290884000D
:100D180083172A1C83130008F1000230F20025080B
:100D2800023EAB0026080318013E003EAC002B082B
:100D3800840083172C1C831300080A128A110320CD
:100D48000A128A110030F3000030F2000030F1007E
:100D58007830F0002508033EA90026080318013E54
:100D6800003EAA002908840083172A1C8313000860
:100D78000A128A1103200A128A1183120313230804
:100D8800A0002408A1002C30572F2508043EA900F4
:100D980026080318013E003EAA002908840083178C
:100DA8002A1C831308300006031D08002308A0002E
:100DB8002408A1002030A2000A128A1112220A1265
:100DC8008A110030F3000030F200C330F1005030D7
:100DD800F0002508033EA90026080318013E003E3E
:100DE800AA002908840083172A1C831300080A1202
:100DF8008A1103200A128A11831203132308A00000
:100E08002408A1002030A2000A128A1112220A1214
:100E18008A110030F3000030F2000030F100783021
:100E2800F0002508033EA90026080318013E003EED
:100E3800AA002908840083172A1C831300080A12B1
:100E48008A1103200A128A11831203132308A000AF
:100E58002408A1002030A2000A128A1112220A12C4
:100E68008A110030F3000030F2000030F1007830D1
:100E7800F0002508033EA90026080318013E003E9D
:100E8800AA002908840083172A1C831300080A1261
:100E98008A1103200A128A11831203132308A0005F
:100EA8002408A1003C30A2000A128A1112220A1258
:100EB8008A110030F3000030F2000030F1003230C7
:100EC800F0002508033EA90026080318013E003E4D
:100ED800AA002908840083172A1C831300080A1211
:100EE8008A1103200A128A11831203132308A0000F
:100EF8002408A1000830A2000A128A1112220A123C
:100F08008A110030F3000030F2000030F100323076
:100F1800F0002508033EA90026080318013E003EFC
:100F2800AA002908840083172A1C831300080A12C0
:100F38008A1103200A128A11831203132308A000BE
:100F48002408A100A201A20A0A128A1112220A1276
:100F58008A110030F3000030F2000730F100D03081
:100F6800F0002508033EA90026080318013E003EAC
:100F7800AA002908840083172A1C831300080A1270
:100F88008A1103200A128A11831203132308A0006E
:100F98002408A1000630A2000A128A1112220A129D
:100FA8008A110030F3000030F2000030F1003230D6
:100FB800F0002508033EA90026080318013E003E5C
:100FC800AA002908840083172A1C831300080A1220
:100FD8008A110320080083120313B201B301B4017C
:100FE800B501B601B701B801B901BA01BB01BC012D
:080FF80083010A128A11692C21
:02400E00723FFF
:00000001FF
